{
  "contractName": "MediChain",
  "abi": [
    {
      "inputs": [],
      "name": "recordCount",
      "outputs": [
        {
          "internalType": "uint8",
          "name": "",
          "type": "uint8"
        }
      ],
      "stateMutability": "view",
      "type": "function"
    },
    {
      "inputs": [
        {
          "internalType": "uint8",
          "name": "",
          "type": "uint8"
        }
      ],
      "name": "records",
      "outputs": [
        {
          "internalType": "uint8",
          "name": "recordId",
          "type": "uint8"
        },
        {
          "internalType": "string",
          "name": "fileName",
          "type": "string"
        },
        {
          "internalType": "string",
          "name": "ipfsHash",
          "type": "string"
        },
        {
          "internalType": "address",
          "name": "owner",
          "type": "address"
        }
      ],
      "stateMutability": "view",
      "type": "function"
    },
    {
      "inputs": [
        {
          "internalType": "string",
          "name": "_hash",
          "type": "string"
        },
        {
          "internalType": "string",
          "name": "_fileName",
          "type": "string"
        }
      ],
      "name": "createRecord",
      "outputs": [],
      "stateMutability": "nonpayable",
      "type": "function"
    },
    {
      "inputs": [
        {
          "internalType": "uint8",
          "name": "_id",
          "type": "uint8"
        },
        {
          "internalType": "address",
          "name": "_address",
          "type": "address"
        }
      ],
      "name": "getPermission",
      "outputs": [
        {
          "internalType": "enum MediChain.Permission",
          "name": "",
          "type": "uint8"
        }
      ],
      "stateMutability": "view",
      "type": "function"
    },
    {
      "inputs": [
        {
          "internalType": "uint8",
          "name": "_id",
          "type": "uint8"
        },
        {
          "internalType": "address",
          "name": "_address",
          "type": "address"
        },
        {
          "internalType": "uint8",
          "name": "_permission",
          "type": "uint8"
        }
      ],
      "name": "changePermission",
      "outputs": [],
      "stateMutability": "nonpayable",
      "type": "function"
    },
    {
      "inputs": [
        {
          "internalType": "uint8",
          "name": "_id",
          "type": "uint8"
        }
      ],
      "name": "viewFile",
      "outputs": [
        {
          "internalType": "string",
          "name": "",
          "type": "string"
        }
      ],
      "stateMutability": "view",
      "type": "function"
    },
    {
      "inputs": [
        {
          "internalType": "uint8",
          "name": "_id",
          "type": "uint8"
        },
        {
          "internalType": "string",
          "name": "_hash",
          "type": "string"
        }
      ],
      "name": "editFile",
      "outputs": [],
      "stateMutability": "nonpayable",
      "type": "function"
    }
  ],
  "bytecode": "0x608060405260008060006101000a81548160ff021916908360ff16021790555034801561002b57600080fd5b506116cd8061003b6000396000f3fe608060405234801561001057600080fd5b506004361061007d5760003560e01c80636034c1991161005b5780636034c19914610101578063900407bc14610131578063c090b4df1461014f578063e65a5fb81461016b5761007d565b806330ef9f71146100825780633fbd0dcb146100b55780635e4cc894146100e5575b600080fd5b61009c60048036038101906100979190610d79565b610187565b6040516100ac9493929190610e8f565b60405180910390f35b6100cf60048036038101906100ca9190610d79565b6102f4565b6040516100dc9190610ee2565b60405180910390f35b6100ff60048036038101906100fa9190610f30565b61052f565b005b61011b60048036038101906101169190610f83565b610805565b604051610128919061103a565b60405180910390f35b6101396108d3565b6040516101469190611055565b60405180910390f35b610169600480360381019061016491906111a5565b6108e4565b005b6101856004803603810190610180919061121d565b610b00565b005b60016020528060005260406000206000915090508060000160009054906101000a900460ff16908060010180546101bd906112a8565b80601f01602080910402602001604051908101604052809291908181526020018280546101e9906112a8565b80156102365780601f1061020b57610100808354040283529160200191610236565b820191906000526020600020905b81548152906001019060200180831161021957829003601f168201915b50505050509080600201805461024b906112a8565b80601f0160208091040260200160405190810160405280929190818152602001828054610277906112a8565b80156102c45780601f10610299576101008083540402835291602001916102c4565b820191906000526020600020905b8154815290600101906020018083116102a757829003601f168201915b5050505050908060030160009054906101000a900473ffffffffffffffffffffffffffffffffffffffff16905084565b606060008054906101000a900460ff1660ff168260ff16111561034c576040517f08c379a000000000000000000000000000000000000000000000000000000000815260040161034390611325565b60405180910390fd5b6000600160008460ff1660ff16815260200190815260200160002090506001600281111561037d5761037c610fc3565b5b8160040160003373ffffffffffffffffffffffffffffffffffffffff1673ffffffffffffffffffffffffffffffffffffffff16815260200190815260200160002060009054906101000a900460ff1660028111156103de576103dd610fc3565b5b148061045b57506002808111156103f8576103f7610fc3565b5b8160040160003373ffffffffffffffffffffffffffffffffffffffff1673ffffffffffffffffffffffffffffffffffffffff16815260200190815260200160002060009054906101000a900460ff16600281111561045957610458610fc3565b5b145b61049a576040517f08c379a0000000000000000000000000000000000000000000000000000000008152600401610491906113b7565b60405180910390fd5b8060020180546104a9906112a8565b80601f01602080910402602001604051908101604052809291908181526020018280546104d5906112a8565b80156105225780601f106104f757610100808354040283529160200191610522565b820191906000526020600020905b81548152906001019060200180831161050557829003601f168201915b5050505050915050919050565b60008054906101000a900460ff1660ff168360ff161115610585576040517f08c379a000000000000000000000000000000000000000000000000000000000815260040161057c90611325565b60405180910390fd5b60028160ff1611156105cc576040517f08c379a00000000000000000000000000000000000000000000000000000000081526004016105c390611423565b60405180910390fd5b6000600160008560ff1660ff16815260200190815260200160002090506002808111156105fc576105fb610fc3565b5b8160040160003373ffffffffffffffffffffffffffffffffffffffff1673ffffffffffffffffffffffffffffffffffffffff16815260200190815260200160002060009054906101000a900460ff16600281111561065d5761065c610fc3565b5b1461069d576040517f08c379a0000000000000000000000000000000000000000000000000000000008152600401610694906114b5565b60405180910390fd5b60008260ff16036107135760008160040160008573ffffffffffffffffffffffffffffffffffffffff1673ffffffffffffffffffffffffffffffffffffffff16815260200190815260200160002060006101000a81548160ff0219169083600281111561070d5761070c610fc3565b5b02179055505b60018260ff16036107895760018160040160008573ffffffffffffffffffffffffffffffffffffffff1673ffffffffffffffffffffffffffffffffffffffff16815260200190815260200160002060006101000a81548160ff0219169083600281111561078357610782610fc3565b5b02179055505b60028260ff16036107ff5760028160040160008573ffffffffffffffffffffffffffffffffffffffff1673ffffffffffffffffffffffffffffffffffffffff16815260200190815260200160002060006101000a81548160ff021916908360028111156107f9576107f8610fc3565b5b02179055505b50505050565b60008060009054906101000a900460ff1660ff168360ff16111561085e576040517f08c379a000000000000000000000000000000000000000000000000000000000815260040161085590611325565b60405180910390fd5b6000600160008560ff1660ff16815260200190815260200160002090508060040160008473ffffffffffffffffffffffffffffffffffffffff1673ffffffffffffffffffffffffffffffffffffffff16815260200190815260200160002060009054906101000a900460ff1691505092915050565b60008054906101000a900460ff1681565b6000825111610928576040517f08c379a000000000000000000000000000000000000000000000000000000000815260040161091f90611521565b60405180910390fd5b600081511161096c576040517f08c379a00000000000000000000000000000000000000000000000000000000081526004016109639061158d565b60405180910390fd5b60008081819054906101000a900460ff168092919061098a906115dc565b91906101000a81548160ff021916908360ff160217905550506000600160008060009054906101000a900460ff1660ff1660ff168152602001908152602001600020905060008054906101000a900460ff168160000160006101000a81548160ff021916908360ff16021790555082816002019080519060200190610a10929190610c89565b5081816001019080519060200190610a29929190610c89565b50338160030160006101000a81548173ffffffffffffffffffffffffffffffffffffffff021916908373ffffffffffffffffffffffffffffffffffffffff16021790555060028160040160008360030160009054906101000a900473ffffffffffffffffffffffffffffffffffffffff1673ffffffffffffffffffffffffffffffffffffffff1673ffffffffffffffffffffffffffffffffffffffff16815260200190815260200160002060006101000a81548160ff02191690836002811115610af657610af5610fc3565b5b0217905550505050565b60008054906101000a900460ff1660ff168260ff161115610b56576040517f08c379a0000000000000000000000000000000000000000000000000000000008152600401610b4d90611325565b60405180910390fd5b6000815111610b9a576040517f08c379a0000000000000000000000000000000000000000000000000000000008152600401610b9190611521565b60405180910390fd5b6000600160008460ff1660ff1681526020019081526020016000209050600280811115610bca57610bc9610fc3565b5b8160040160003373ffffffffffffffffffffffffffffffffffffffff1673ffffffffffffffffffffffffffffffffffffffff16815260200190815260200160002060009054906101000a900460ff166002811115610c2b57610c2a610fc3565b5b14610c6b576040517f08c379a0000000000000000000000000000000000000000000000000000000008152600401610c6290611677565b60405180910390fd5b81816002019080519060200190610c83929190610c89565b50505050565b828054610c95906112a8565b90600052602060002090601f016020900481019282610cb75760008555610cfe565b82601f10610cd057805160ff1916838001178555610cfe565b82800160010185558215610cfe579182015b82811115610cfd578251825591602001919060010190610ce2565b5b509050610d0b9190610d0f565b5090565b5b80821115610d28576000816000905550600101610d10565b5090565b6000604051905090565b600080fd5b600080fd5b600060ff82169050919050565b610d5681610d40565b8114610d6157600080fd5b50565b600081359050610d7381610d4d565b92915050565b600060208284031215610d8f57610d8e610d36565b5b6000610d9d84828501610d64565b91505092915050565b610daf81610d40565b82525050565b600081519050919050565b600082825260208201905092915050565b60005b83811015610def578082015181840152602081019050610dd4565b83811115610dfe576000848401525b50505050565b6000601f19601f8301169050919050565b6000610e2082610db5565b610e2a8185610dc0565b9350610e3a818560208601610dd1565b610e4381610e04565b840191505092915050565b600073ffffffffffffffffffffffffffffffffffffffff82169050919050565b6000610e7982610e4e565b9050919050565b610e8981610e6e565b82525050565b6000608082019050610ea46000830187610da6565b8181036020830152610eb68186610e15565b90508181036040830152610eca8185610e15565b9050610ed96060830184610e80565b95945050505050565b60006020820190508181036000830152610efc8184610e15565b905092915050565b610f0d81610e6e565b8114610f1857600080fd5b50565b600081359050610f2a81610f04565b92915050565b600080600060608486031215610f4957610f48610d36565b5b6000610f5786828701610d64565b9350506020610f6886828701610f1b565b9250506040610f7986828701610d64565b9150509250925092565b60008060408385031215610f9a57610f99610d36565b5b6000610fa885828601610d64565b9250506020610fb985828601610f1b565b9150509250929050565b7f4e487b7100000000000000000000000000000000000000000000000000000000600052602160045260246000fd5b6003811061100357611002610fc3565b5b50565b600081905061101482610ff2565b919050565b600061102482611006565b9050919050565b61103481611019565b82525050565b600060208201905061104f600083018461102b565b92915050565b600060208201905061106a6000830184610da6565b92915050565b600080fd5b600080fd5b7f4e487b7100000000000000000000000000000000000000000000000000000000600052604160045260246000fd5b6110b282610e04565b810181811067ffffffffffffffff821117156110d1576110d061107a565b5b80604052505050565b60006110e4610d2c565b90506110f082826110a9565b919050565b600067ffffffffffffffff8211156111105761110f61107a565b5b61111982610e04565b9050602081019050919050565b82818337600083830152505050565b6000611148611143846110f5565b6110da565b90508281526020810184848401111561116457611163611075565b5b61116f848285611126565b509392505050565b600082601f83011261118c5761118b611070565b5b813561119c848260208601611135565b91505092915050565b600080604083850312156111bc576111bb610d36565b5b600083013567ffffffffffffffff8111156111da576111d9610d3b565b5b6111e685828601611177565b925050602083013567ffffffffffffffff81111561120757611206610d3b565b5b61121385828601611177565b9150509250929050565b6000806040838503121561123457611233610d36565b5b600061124285828601610d64565b925050602083013567ffffffffffffffff81111561126357611262610d3b565b5b61126f85828601611177565b9150509250929050565b7f4e487b7100000000000000000000000000000000000000000000000000000000600052602260045260246000fd5b600060028204905060018216806112c057607f821691505b6020821081036112d3576112d2611279565b5b50919050565b7f496e76616c6964205265636f72642049442e0000000000000000000000000000600082015250565b600061130f601283610dc0565b915061131a826112d9565b602082019050919050565b6000602082019050818103600083015261133e81611302565b9050919050565b7f596f752068617665206e6f207065726d7373696f6e20746f207669657720746860008201527f69732046696c6500000000000000000000000000000000000000000000000000602082015250565b60006113a1602783610dc0565b91506113ac82611345565b604082019050919050565b600060208201905081810360008301526113d081611394565b9050919050565b7f496e76616c6964207065726d7373696f6e207265717565737465642e00000000600082015250565b600061140d601c83610dc0565b9150611418826113d7565b602082019050919050565b6000602082019050818103600083015261143c81611400565b9050919050565b7f596f752068617665206e6f207065726d7373696f6e20746f206368616e67652060008201527f6163636573730000000000000000000000000000000000000000000000000000602082015250565b600061149f602683610dc0565b91506114aa82611443565b604082019050919050565b600060208201905081810360008301526114ce81611492565b9050919050565b7f496e76616c696420646f63756d656e7420495046532068617368000000000000600082015250565b600061150b601a83610dc0565b9150611516826114d5565b602082019050919050565b6000602082019050818103600083015261153a816114fe565b9050919050565b7f496e76616c696420646f63756d656e74206e616d650000000000000000000000600082015250565b6000611577601583610dc0565b915061158282611541565b602082019050919050565b600060208201905081810360008301526115a68161156a565b9050919050565b7f4e487b7100000000000000000000000000000000000000000000000000000000600052601160045260246000fd5b60006115e782610d40565b915060ff82036115fa576115f96115ad565b5b600182019050919050565b7f596f752068617665206e6f207065726d7373696f6e20746f206564697420746860008201527f69732046696c6500000000000000000000000000000000000000000000000000602082015250565b6000611661602783610dc0565b915061166c82611605565b604082019050919050565b6000602082019050818103600083015261169081611654565b905091905056fea26469706673582212203ccb46e7109bfbd6d37a44777c71f34484307deffde311135a940707d78b64d564736f6c634300080d0033",
  "immutableReferences": {},
  "source": "// SPDX-License-Identifier: MIT\r\npragma solidity 0.8.13;\r\n\r\ncontract MediChain {\r\n    \r\n    enum Permission { noPermission, viewOnly, editor }\r\n    \r\n    struct Record {\r\n        uint8 recordId;\r\n        string fileName;\r\n        string ipfsHash;\r\n        address owner;\r\n        mapping(address => Permission) permissions;\r\n    }\r\n    \r\n    uint8 public recordCount = 0;\r\n    \r\n    mapping(uint8 => Record) public records;\r\n    \r\n    function createRecord (string memory _hash, string memory _fileName) \r\n    public {\r\n        require(bytes(_hash).length > 0, \"Invalid document IPFS hash\");\r\n        require(bytes(_fileName).length > 0, \"Invalid document name\");\r\n        recordCount ++;\r\n        Record storage r = records[recordCount];\r\n        r.recordId = recordCount;\r\n        r.ipfsHash = _hash;\r\n        r.fileName = _fileName;\r\n        r.owner = msg.sender;\r\n        r.permissions[r.owner] = Permission.editor;\r\n    }\r\n    \r\n    function getPermission (uint8 _id, address _address) public view returns (Permission) {\r\n        require(_id<=recordCount, \"Invalid Record ID.\");\r\n        Record storage r = records[_id];\r\n        return r.permissions[_address];\r\n    }\r\n    \r\n    function changePermission (uint8 _id, address _address, uint8 _permission) public {\r\n        require(_id<=recordCount, \"Invalid Record ID.\");\r\n        require(_permission<=2, \"Invalid permssion requested.\");\r\n        Record storage r = records[_id];\r\n        require(r.permissions[msg.sender]==Permission.editor, \"You have no permssion to change access\");\r\n        if(_permission == 0)\r\n            r.permissions[_address] = Permission.noPermission;\r\n        if(_permission == 1)\r\n            r.permissions[_address] = Permission.viewOnly;\r\n        if(_permission == 2)\r\n            r.permissions[_address] = Permission.editor;\r\n    }\r\n    \r\n    function viewFile (uint8 _id) public view returns (string memory) {\r\n        require(_id<=recordCount, \"Invalid Record ID.\");\r\n        Record storage r = records[_id];\r\n        require(\r\n            r.permissions[msg.sender]==Permission.viewOnly || r.permissions[msg.sender]==Permission.editor, \r\n            \"You have no permssion to view this File\"\r\n        );\r\n        return r.ipfsHash;\r\n    }\r\n    \r\n    function editFile (uint8 _id, string memory _hash) public {\r\n        require(_id<=recordCount, \"Invalid Record ID.\");\r\n        require(bytes(_hash).length > 0, \"Invalid document IPFS hash\");\r\n        Record storage r = records[_id];\r\n        require(r.permissions[msg.sender]==Permission.editor, \"You have no permssion to edit this File\");\r\n        r.ipfsHash = _hash;\r\n    }\r\n\r\n}",
  "sourcePath": "/Users/nirmit1509/Desktop/Personal_Projects/medichain/contracts/MediChain.sol",
  "compiler": {
    "name": "solc",
    "version": "0.8.13+commit.abaa5c0e.Emscripten.clang"
  },
  "schemaVersion": "3.4.10",
  "updatedAt": "2023-01-03T16:47:54.279Z",
  "devdoc": {
    "kind": "dev",
    "methods": {},
    "version": 1
  },
  "userdoc": {
    "kind": "user",
    "methods": {},
    "version": 1
  }
}