{
  "contractName": "MediChain",
  "abi": [
    {
      "constant": true,
      "inputs": [],
      "name": "recordCount",
      "outputs": [
        {
          "internalType": "uint8",
          "name": "",
          "type": "uint8"
        }
      ],
      "payable": false,
      "stateMutability": "view",
      "type": "function"
    },
    {
      "constant": true,
      "inputs": [
        {
          "internalType": "uint8",
          "name": "",
          "type": "uint8"
        }
      ],
      "name": "records",
      "outputs": [
        {
          "internalType": "uint8",
          "name": "recordId",
          "type": "uint8"
        },
        {
          "internalType": "string",
          "name": "fileName",
          "type": "string"
        },
        {
          "internalType": "string",
          "name": "ipfsHash",
          "type": "string"
        },
        {
          "internalType": "address",
          "name": "owner",
          "type": "address"
        }
      ],
      "payable": false,
      "stateMutability": "view",
      "type": "function"
    },
    {
      "constant": false,
      "inputs": [
        {
          "internalType": "string",
          "name": "_hash",
          "type": "string"
        },
        {
          "internalType": "string",
          "name": "_fileName",
          "type": "string"
        }
      ],
      "name": "createRecord",
      "outputs": [],
      "payable": false,
      "stateMutability": "nonpayable",
      "type": "function"
    },
    {
      "constant": true,
      "inputs": [
        {
          "internalType": "uint8",
          "name": "_id",
          "type": "uint8"
        },
        {
          "internalType": "address",
          "name": "_address",
          "type": "address"
        }
      ],
      "name": "getPermission",
      "outputs": [
        {
          "internalType": "enum MediChain.Permission",
          "name": "",
          "type": "uint8"
        }
      ],
      "payable": false,
      "stateMutability": "view",
      "type": "function"
    },
    {
      "constant": false,
      "inputs": [
        {
          "internalType": "uint8",
          "name": "_id",
          "type": "uint8"
        },
        {
          "internalType": "address",
          "name": "_address",
          "type": "address"
        },
        {
          "internalType": "uint8",
          "name": "_permission",
          "type": "uint8"
        }
      ],
      "name": "changePermission",
      "outputs": [],
      "payable": false,
      "stateMutability": "nonpayable",
      "type": "function"
    },
    {
      "constant": true,
      "inputs": [
        {
          "internalType": "uint8",
          "name": "_id",
          "type": "uint8"
        }
      ],
      "name": "viewFile",
      "outputs": [
        {
          "internalType": "string",
          "name": "",
          "type": "string"
        }
      ],
      "payable": false,
      "stateMutability": "view",
      "type": "function"
    },
    {
      "constant": false,
      "inputs": [
        {
          "internalType": "uint8",
          "name": "_id",
          "type": "uint8"
        },
        {
          "internalType": "string",
          "name": "_hash",
          "type": "string"
        }
      ],
      "name": "editFile",
      "outputs": [],
      "payable": false,
      "stateMutability": "nonpayable",
      "type": "function"
    }
  ],
  "bytecode": "0x608060405260008060006101000a81548160ff021916908360ff16021790555034801561002b57600080fd5b5061148d8061003b6000396000f3fe608060405234801561001057600080fd5b506004361061007d5760003560e01c80636034c1991161005b5780636034c199146102e0578063900407bc14610353578063c090b4df14610377578063e65a5fb8146104c95761007d565b806330ef9f71146100825780633fbd0dcb146101d85780635e4cc89414610282575b600080fd5b6100b16004803603602081101561009857600080fd5b81019080803560ff169060200190929190505050610591565b604051808560ff1660ff16815260200180602001806020018473ffffffffffffffffffffffffffffffffffffffff1673ffffffffffffffffffffffffffffffffffffffff168152602001838103835286818151815260200191508051906020019080838360005b83811015610133578082015181840152602081019050610118565b50505050905090810190601f1680156101605780820380516001836020036101000a031916815260200191505b50838103825285818151815260200191508051906020019080838360005b8381101561019957808201518184015260208101905061017e565b50505050905090810190601f1680156101c65780820380516001836020036101000a031916815260200191505b50965050505050505060405180910390f35b610207600480360360208110156101ee57600080fd5b81019080803560ff16906020019092919050505061071e565b6040518080602001828103825283818151815260200191508051906020019080838360005b8381101561024757808201518184015260208101905061022c565b50505050905090810190601f1680156102745780820380516001836020036101000a031916815260200191505b509250505060405180910390f35b6102de6004803603606081101561029857600080fd5b81019080803560ff169060200190929190803573ffffffffffffffffffffffffffffffffffffffff169060200190929190803560ff169060200190929190505050610997565b005b61032f600480360360408110156102f657600080fd5b81019080803560ff169060200190929190803573ffffffffffffffffffffffffffffffffffffffff169060200190929190505050610cca565b6040518082600281111561033f57fe5b60ff16815260200191505060405180910390f35b61035b610dcb565b604051808260ff1660ff16815260200191505060405180910390f35b6104c76004803603604081101561038d57600080fd5b81019080803590602001906401000000008111156103aa57600080fd5b8201836020820111156103bc57600080fd5b803590602001918460018302840111640100000000831117156103de57600080fd5b91908080601f016020809104026020016040519081016040528093929190818152602001838380828437600081840152601f19601f8201169050808301925050505050505091929192908035906020019064010000000081111561044157600080fd5b82018360208201111561045357600080fd5b8035906020019184600183028401116401000000008311171561047557600080fd5b91908080601f016020809104026020016040519081016040528093929190818152602001838380828437600081840152601f19601f820116905080830192505050505050509192919290505050610ddd565b005b61058f600480360360408110156104df57600080fd5b81019080803560ff1690602001909291908035906020019064010000000081111561050957600080fd5b82018360208201111561051b57600080fd5b8035906020019184600183028401116401000000008311171561053d57600080fd5b91908080601f016020809104026020016040519081016040528093929190818152602001838380828437600081840152601f19601f8201169050808301925050505050505091929192905050506110c7565b005b60016020528060005260406000206000915090508060000160009054906101000a900460ff1690806001018054600181600116156101000203166002900480601f0160208091040260200160405190810160405280929190818152602001828054600181600116156101000203166002900480156106505780601f1061062557610100808354040283529160200191610650565b820191906000526020600020905b81548152906001019060200180831161063357829003601f168201915b505050505090806002018054600181600116156101000203166002900480601f0160208091040260200160405190810160405280929190818152602001828054600181600116156101000203166002900480156106ee5780601f106106c3576101008083540402835291602001916106ee565b820191906000526020600020905b8154815290600101906020018083116106d157829003601f168201915b5050505050908060030160009054906101000a900473ffffffffffffffffffffffffffffffffffffffff16905084565b60606000809054906101000a900460ff1660ff168260ff1611156107aa576040517f08c379a00000000000000000000000000000000000000000000000000000000081526004018080602001828103825260128152602001807f496e76616c6964205265636f72642049442e000000000000000000000000000081525060200191505060405180910390fd5b6000600160008460ff1660ff1681526020019081526020016000209050600160028111156107d457fe5b8160040160003373ffffffffffffffffffffffffffffffffffffffff1673ffffffffffffffffffffffffffffffffffffffff16815260200190815260200160002060009054906101000a900460ff16600281111561082e57fe5b148061089d575060028081111561084157fe5b8160040160003373ffffffffffffffffffffffffffffffffffffffff1673ffffffffffffffffffffffffffffffffffffffff16815260200190815260200160002060009054906101000a900460ff16600281111561089b57fe5b145b6108f2576040517f08c379a00000000000000000000000000000000000000000000000000000000081526004018080602001828103825260278152602001806114326027913960400191505060405180910390fd5b806002018054600181600116156101000203166002900480601f01602080910402602001604051908101604052809291908181526020018280546001816001161561010002031660029004801561098a5780601f1061095f5761010080835404028352916020019161098a565b820191906000526020600020905b81548152906001019060200180831161096d57829003601f168201915b5050505050915050919050565b6000809054906101000a900460ff1660ff168360ff161115610a21576040517f08c379a00000000000000000000000000000000000000000000000000000000081526004018080602001828103825260128152602001807f496e76616c6964205265636f72642049442e000000000000000000000000000081525060200191505060405180910390fd5b60028160ff161115610a9b576040517f08c379a000000000000000000000000000000000000000000000000000000000815260040180806020018281038252601c8152602001807f496e76616c6964207065726d7373696f6e207265717565737465642e0000000081525060200191505060405180910390fd5b6000600160008560ff1660ff1681526020019081526020016000209050600280811115610ac457fe5b8160040160003373ffffffffffffffffffffffffffffffffffffffff1673ffffffffffffffffffffffffffffffffffffffff16815260200190815260200160002060009054906101000a900460ff166002811115610b1e57fe5b14610b74576040517f08c379a00000000000000000000000000000000000000000000000000000000081526004018080602001828103825260268152602001806113e56026913960400191505060405180910390fd5b60008260ff161415610be45760008160040160008573ffffffffffffffffffffffffffffffffffffffff1673ffffffffffffffffffffffffffffffffffffffff16815260200190815260200160002060006101000a81548160ff02191690836002811115610bde57fe5b02179055505b60018260ff161415610c545760018160040160008573ffffffffffffffffffffffffffffffffffffffff1673ffffffffffffffffffffffffffffffffffffffff16815260200190815260200160002060006101000a81548160ff02191690836002811115610c4e57fe5b02179055505b60028260ff161415610cc45760028160040160008573ffffffffffffffffffffffffffffffffffffffff1673ffffffffffffffffffffffffffffffffffffffff16815260200190815260200160002060006101000a81548160ff02191690836002811115610cbe57fe5b02179055505b50505050565b60008060009054906101000a900460ff1660ff168360ff161115610d56576040517f08c379a00000000000000000000000000000000000000000000000000000000081526004018080602001828103825260128152602001807f496e76616c6964205265636f72642049442e000000000000000000000000000081525060200191505060405180910390fd5b6000600160008560ff1660ff16815260200190815260200160002090508060040160008473ffffffffffffffffffffffffffffffffffffffff1673ffffffffffffffffffffffffffffffffffffffff16815260200190815260200160002060009054906101000a900460ff1691505092915050565b6000809054906101000a900460ff1681565b6000825111610e54576040517f08c379a000000000000000000000000000000000000000000000000000000000815260040180806020018281038252601a8152602001807f496e76616c696420646f63756d656e742049504653206861736800000000000081525060200191505060405180910390fd5b6000815111610ecb576040517f08c379a00000000000000000000000000000000000000000000000000000000081526004018080602001828103825260158152602001807f496e76616c696420646f63756d656e74206e616d65000000000000000000000081525060200191505060405180910390fd5b60008081819054906101000a900460ff168092919060010191906101000a81548160ff021916908360ff1602179055505060405180608001604052806000809054906101000a900460ff1660ff1681526020018281526020018381526020013373ffffffffffffffffffffffffffffffffffffffff16815250600160008060009054906101000a900460ff1660ff1660ff16815260200190815260200160002060008201518160000160006101000a81548160ff021916908360ff1602179055506020820151816001019080519060200190610fa89291906112bf565b506040820151816002019080519060200190610fc59291906112bf565b5060608201518160030160006101000a81548173ffffffffffffffffffffffffffffffffffffffff021916908373ffffffffffffffffffffffffffffffffffffffff1602179055509050506000600160008060009054906101000a900460ff1660ff1660ff168152602001908152602001600020905060028160040160008360030160009054906101000a900473ffffffffffffffffffffffffffffffffffffffff1673ffffffffffffffffffffffffffffffffffffffff1673ffffffffffffffffffffffffffffffffffffffff16815260200190815260200160002060006101000a81548160ff021916908360028111156110bd57fe5b0217905550505050565b6000809054906101000a900460ff1660ff168260ff161115611151576040517f08c379a00000000000000000000000000000000000000000000000000000000081526004018080602001828103825260128152602001807f496e76616c6964205265636f72642049442e000000000000000000000000000081525060200191505060405180910390fd5b60008151116111c8576040517f08c379a000000000000000000000000000000000000000000000000000000000815260040180806020018281038252601a8152602001807f496e76616c696420646f63756d656e742049504653206861736800000000000081525060200191505060405180910390fd5b6000600160008460ff1660ff16815260200190815260200160002090506002808111156111f157fe5b8160040160003373ffffffffffffffffffffffffffffffffffffffff1673ffffffffffffffffffffffffffffffffffffffff16815260200190815260200160002060009054906101000a900460ff16600281111561124b57fe5b146112a1576040517f08c379a000000000000000000000000000000000000000000000000000000000815260040180806020018281038252602781526020018061140b6027913960400191505060405180910390fd5b818160020190805190602001906112b992919061133f565b50505050565b828054600181600116156101000203166002900490600052602060002090601f016020900481019282601f1061130057805160ff191683800117855561132e565b8280016001018555821561132e579182015b8281111561132d578251825591602001919060010190611312565b5b50905061133b91906113bf565b5090565b828054600181600116156101000203166002900490600052602060002090601f016020900481019282601f1061138057805160ff19168380011785556113ae565b828001600101855582156113ae579182015b828111156113ad578251825591602001919060010190611392565b5b5090506113bb91906113bf565b5090565b6113e191905b808211156113dd5760008160009055506001016113c5565b5090565b9056fe596f752068617665206e6f207065726d7373696f6e20746f206368616e676520616363657373596f752068617665206e6f207065726d7373696f6e20746f206564697420746869732046696c65596f752068617665206e6f207065726d7373696f6e20746f207669657720746869732046696c65a265627a7a723158207ddd8b7184d7fe7edd37054c725dfaf99604e5f5610105834c3b6d8ce56bb4de64736f6c63430005110032",
  "source": "// SPDX-License-Identifier: MIT\r\n\r\npragma solidity >=0.5.0;\r\n\r\ncontract MediChain {\r\n    \r\n    enum Permission { noPermission, viewOnly, editor }\r\n    \r\n    struct Record {\r\n        uint8 recordId;\r\n        string fileName;\r\n        string ipfsHash;\r\n        address owner;\r\n        mapping(address => Permission) permissions;\r\n    }\r\n    \r\n    uint8 public recordCount = 0;\r\n    \r\n    mapping(uint8 => Record) public records;\r\n    \r\n    function createRecord (string memory _hash, string memory _fileName) \r\n    public {\r\n        require(bytes(_hash).length > 0, \"Invalid document IPFS hash\");\r\n        require(bytes(_fileName).length > 0, \"Invalid document name\");\r\n        recordCount ++;\r\n        records[recordCount] = Record({\r\n            recordId: recordCount, \r\n            ipfsHash: _hash, \r\n            fileName: _fileName, \r\n            owner: msg.sender\r\n        });\r\n        Record storage r = records[recordCount];\r\n        r.permissions[r.owner] = Permission.editor;\r\n    }\r\n    \r\n    function getPermission (uint8 _id, address _address) public view returns (Permission) {\r\n        require(_id<=recordCount, \"Invalid Record ID.\");\r\n        Record storage r = records[_id];\r\n        return r.permissions[_address];\r\n    }\r\n    \r\n    function changePermission (uint8 _id, address _address, uint8 _permission) public {\r\n        require(_id<=recordCount, \"Invalid Record ID.\");\r\n        require(_permission<=2, \"Invalid permssion requested.\");\r\n        Record storage r = records[_id];\r\n        require(r.permissions[msg.sender]==Permission.editor, \"You have no permssion to change access\");\r\n        if(_permission == 0)\r\n            r.permissions[_address] = Permission.noPermission;\r\n        if(_permission == 1)\r\n            r.permissions[_address] = Permission.viewOnly;\r\n        if(_permission == 2)\r\n            r.permissions[_address] = Permission.editor;\r\n    }\r\n    \r\n    function viewFile (uint8 _id) public view returns (string memory) {\r\n        require(_id<=recordCount, \"Invalid Record ID.\");\r\n        Record storage r = records[_id];\r\n        require(\r\n            r.permissions[msg.sender]==Permission.viewOnly || r.permissions[msg.sender]==Permission.editor, \r\n            \"You have no permssion to view this File\"\r\n        );\r\n        return r.ipfsHash;\r\n    }\r\n    \r\n    function editFile (uint8 _id, string memory _hash) public {\r\n        require(_id<=recordCount, \"Invalid Record ID.\");\r\n        require(bytes(_hash).length > 0, \"Invalid document IPFS hash\");\r\n        Record storage r = records[_id];\r\n        require(r.permissions[msg.sender]==Permission.editor, \"You have no permssion to edit this File\");\r\n        r.ipfsHash = _hash;\r\n    }\r\n\r\n}",
  "sourcePath": "C:/Users/DELL/Desktop/MediChain/medichain/contracts/MediChain.sol",
  "compiler": {
    "name": "solc",
    "version": "0.5.17+commit.d19bba13.Emscripten.clang"
  },
  "schemaVersion": "3.3.1",
  "updatedAt": "2021-05-04T09:24:52.149Z",
  "networkType": "ethereum",
  "devdoc": {
    "methods": {}
  },
  "userdoc": {
    "methods": {}
  }
}